{
  "contractName": "LipToken",
  "abi": [
    {
      "inputs": [
        {
          "internalType": "string",
          "name": "_name",
          "type": "string"
        },
        {
          "internalType": "string",
          "name": "_symbol",
          "type": "string"
        }
      ],
      "stateMutability": "nonpayable",
      "type": "constructor"
    },
    {
      "anonymous": false,
      "inputs": [
        {
          "indexed": true,
          "internalType": "address",
          "name": "owner",
          "type": "address"
        },
        {
          "indexed": true,
          "internalType": "address",
          "name": "approved",
          "type": "address"
        },
        {
          "indexed": true,
          "internalType": "uint256",
          "name": "tokenId",
          "type": "uint256"
        }
      ],
      "name": "Approval",
      "type": "event"
    },
    {
      "anonymous": false,
      "inputs": [
        {
          "indexed": true,
          "internalType": "address",
          "name": "owner",
          "type": "address"
        },
        {
          "indexed": true,
          "internalType": "address",
          "name": "operator",
          "type": "address"
        },
        {
          "indexed": false,
          "internalType": "bool",
          "name": "approved",
          "type": "bool"
        }
      ],
      "name": "ApprovalForAll",
      "type": "event"
    },
    {
      "anonymous": false,
      "inputs": [
        {
          "indexed": true,
          "internalType": "address",
          "name": "owner",
          "type": "address"
        },
        {
          "indexed": false,
          "internalType": "uint256",
          "name": "id",
          "type": "uint256"
        },
        {
          "indexed": false,
          "internalType": "uint256",
          "name": "dna",
          "type": "uint256"
        }
      ],
      "name": "NewLip",
      "type": "event"
    },
    {
      "anonymous": false,
      "inputs": [
        {
          "indexed": true,
          "internalType": "address",
          "name": "previousOwner",
          "type": "address"
        },
        {
          "indexed": true,
          "internalType": "address",
          "name": "newOwner",
          "type": "address"
        }
      ],
      "name": "OwnershipTransferred",
      "type": "event"
    },
    {
      "anonymous": false,
      "inputs": [
        {
          "indexed": true,
          "internalType": "address",
          "name": "from",
          "type": "address"
        },
        {
          "indexed": true,
          "internalType": "address",
          "name": "to",
          "type": "address"
        },
        {
          "indexed": true,
          "internalType": "uint256",
          "name": "tokenId",
          "type": "uint256"
        }
      ],
      "name": "Transfer",
      "type": "event"
    },
    {
      "inputs": [
        {
          "internalType": "address",
          "name": "to",
          "type": "address"
        },
        {
          "internalType": "uint256",
          "name": "tokenId",
          "type": "uint256"
        }
      ],
      "name": "approve",
      "outputs": [],
      "stateMutability": "nonpayable",
      "type": "function"
    },
    {
      "inputs": [
        {
          "internalType": "address",
          "name": "owner",
          "type": "address"
        }
      ],
      "name": "balanceOf",
      "outputs": [
        {
          "internalType": "uint256",
          "name": "",
          "type": "uint256"
        }
      ],
      "stateMutability": "view",
      "type": "function",
      "constant": true
    },
    {
      "inputs": [
        {
          "internalType": "uint256",
          "name": "tokenId",
          "type": "uint256"
        }
      ],
      "name": "getApproved",
      "outputs": [
        {
          "internalType": "address",
          "name": "",
          "type": "address"
        }
      ],
      "stateMutability": "view",
      "type": "function",
      "constant": true
    },
    {
      "inputs": [
        {
          "internalType": "address",
          "name": "owner",
          "type": "address"
        },
        {
          "internalType": "address",
          "name": "operator",
          "type": "address"
        }
      ],
      "name": "isApprovedForAll",
      "outputs": [
        {
          "internalType": "bool",
          "name": "",
          "type": "bool"
        }
      ],
      "stateMutability": "view",
      "type": "function",
      "constant": true
    },
    {
      "inputs": [
        {
          "internalType": "uint256",
          "name": "",
          "type": "uint256"
        }
      ],
      "name": "lips",
      "outputs": [
        {
          "internalType": "string",
          "name": "name",
          "type": "string"
        },
        {
          "internalType": "uint256",
          "name": "id",
          "type": "uint256"
        },
        {
          "internalType": "uint256",
          "name": "dna",
          "type": "uint256"
        },
        {
          "internalType": "uint8",
          "name": "level",
          "type": "uint8"
        },
        {
          "internalType": "uint8",
          "name": "rarity",
          "type": "uint8"
        }
      ],
      "stateMutability": "view",
      "type": "function",
      "constant": true
    },
    {
      "inputs": [],
      "name": "name",
      "outputs": [
        {
          "internalType": "string",
          "name": "",
          "type": "string"
        }
      ],
      "stateMutability": "view",
      "type": "function",
      "constant": true
    },
    {
      "inputs": [],
      "name": "owner",
      "outputs": [
        {
          "internalType": "address",
          "name": "",
          "type": "address"
        }
      ],
      "stateMutability": "view",
      "type": "function",
      "constant": true
    },
    {
      "inputs": [
        {
          "internalType": "uint256",
          "name": "tokenId",
          "type": "uint256"
        }
      ],
      "name": "ownerOf",
      "outputs": [
        {
          "internalType": "address",
          "name": "",
          "type": "address"
        }
      ],
      "stateMutability": "view",
      "type": "function",
      "constant": true
    },
    {
      "inputs": [],
      "name": "renounceOwnership",
      "outputs": [],
      "stateMutability": "nonpayable",
      "type": "function"
    },
    {
      "inputs": [
        {
          "internalType": "address",
          "name": "from",
          "type": "address"
        },
        {
          "internalType": "address",
          "name": "to",
          "type": "address"
        },
        {
          "internalType": "uint256",
          "name": "tokenId",
          "type": "uint256"
        }
      ],
      "name": "safeTransferFrom",
      "outputs": [],
      "stateMutability": "nonpayable",
      "type": "function"
    },
    {
      "inputs": [
        {
          "internalType": "address",
          "name": "from",
          "type": "address"
        },
        {
          "internalType": "address",
          "name": "to",
          "type": "address"
        },
        {
          "internalType": "uint256",
          "name": "tokenId",
          "type": "uint256"
        },
        {
          "internalType": "bytes",
          "name": "_data",
          "type": "bytes"
        }
      ],
      "name": "safeTransferFrom",
      "outputs": [],
      "stateMutability": "nonpayable",
      "type": "function"
    },
    {
      "inputs": [
        {
          "internalType": "address",
          "name": "operator",
          "type": "address"
        },
        {
          "internalType": "bool",
          "name": "approved",
          "type": "bool"
        }
      ],
      "name": "setApprovalForAll",
      "outputs": [],
      "stateMutability": "nonpayable",
      "type": "function"
    },
    {
      "inputs": [
        {
          "internalType": "bytes4",
          "name": "interfaceId",
          "type": "bytes4"
        }
      ],
      "name": "supportsInterface",
      "outputs": [
        {
          "internalType": "bool",
          "name": "",
          "type": "bool"
        }
      ],
      "stateMutability": "view",
      "type": "function",
      "constant": true
    },
    {
      "inputs": [],
      "name": "symbol",
      "outputs": [
        {
          "internalType": "string",
          "name": "",
          "type": "string"
        }
      ],
      "stateMutability": "view",
      "type": "function",
      "constant": true
    },
    {
      "inputs": [
        {
          "internalType": "uint256",
          "name": "tokenId",
          "type": "uint256"
        }
      ],
      "name": "tokenURI",
      "outputs": [
        {
          "internalType": "string",
          "name": "",
          "type": "string"
        }
      ],
      "stateMutability": "view",
      "type": "function",
      "constant": true
    },
    {
      "inputs": [
        {
          "internalType": "address",
          "name": "from",
          "type": "address"
        },
        {
          "internalType": "address",
          "name": "to",
          "type": "address"
        },
        {
          "internalType": "uint256",
          "name": "tokenId",
          "type": "uint256"
        }
      ],
      "name": "transferFrom",
      "outputs": [],
      "stateMutability": "nonpayable",
      "type": "function"
    },
    {
      "inputs": [
        {
          "internalType": "address",
          "name": "newOwner",
          "type": "address"
        }
      ],
      "name": "transferOwnership",
      "outputs": [],
      "stateMutability": "nonpayable",
      "type": "function"
    },
    {
      "inputs": [
        {
          "internalType": "uint256",
          "name": "_fee",
          "type": "uint256"
        }
      ],
      "name": "updateFee",
      "outputs": [],
      "stateMutability": "nonpayable",
      "type": "function"
    },
    {
      "inputs": [],
      "name": "withdraw",
      "outputs": [],
      "stateMutability": "payable",
      "type": "function",
      "payable": true
    },
    {
      "inputs": [
        {
          "internalType": "string",
          "name": "_name",
          "type": "string"
        }
      ],
      "name": "createRandomLip",
      "outputs": [],
      "stateMutability": "payable",
      "type": "function",
      "payable": true
    },
    {
      "inputs": [],
      "name": "getLips",
      "outputs": [
        {
          "components": [
            {
              "internalType": "string",
              "name": "name",
              "type": "string"
            },
            {
              "internalType": "uint256",
              "name": "id",
              "type": "uint256"
            },
            {
              "internalType": "uint256",
              "name": "dna",
              "type": "uint256"
            },
            {
              "internalType": "uint8",
              "name": "level",
              "type": "uint8"
            },
            {
              "internalType": "uint8",
              "name": "rarity",
              "type": "uint8"
            }
          ],
          "internalType": "struct LipToken.Lip[]",
          "name": "",
          "type": "tuple[]"
        }
      ],
      "stateMutability": "view",
      "type": "function",
      "constant": true
    },
    {
      "inputs": [
        {
          "internalType": "address",
          "name": "_owner",
          "type": "address"
        }
      ],
      "name": "getOwnerLips",
      "outputs": [
        {
          "components": [
            {
              "internalType": "string",
              "name": "name",
              "type": "string"
            },
            {
              "internalType": "uint256",
              "name": "id",
              "type": "uint256"
            },
            {
              "internalType": "uint256",
              "name": "dna",
              "type": "uint256"
            },
            {
              "internalType": "uint8",
              "name": "level",
              "type": "uint8"
            },
            {
              "internalType": "uint8",
              "name": "rarity",
              "type": "uint8"
            }
          ],
          "internalType": "struct LipToken.Lip[]",
          "name": "",
          "type": "tuple[]"
        }
      ],
      "stateMutability": "view",
      "type": "function",
      "constant": true
    },
    {
      "inputs": [
        {
          "internalType": "uint256",
          "name": "_lipId",
          "type": "uint256"
        }
      ],
      "name": "levelUp",
      "outputs": [],
      "stateMutability": "nonpayable",
      "type": "function"
    }
  ],
  "bytecode": "0x6080604052662386f26fc100006008553480156200001c57600080fd5b50604051620024c3380380620024c38339810160408190526200003f916200023a565b81518290829062000058906000906020850190620000e9565b5080516200006e906001906020840190620000e9565b5050506200008b620000856200009360201b60201c565b62000097565b5050620002f4565b3390565b600680546001600160a01b038381166001600160a01b0319831681179093556040519116919082907f8be0079c531659141344cd1fd0a4f28419497f9722a3daafe3b4186f6b6457e090600090a35050565b828054620000f790620002a1565b90600052602060002090601f0160209004810192826200011b576000855562000166565b82601f106200013657805160ff191683800117855562000166565b8280016001018555821562000166579182015b828111156200016657825182559160200191906001019062000149565b506200017492915062000178565b5090565b5b8082111562000174576000815560010162000179565b600082601f830112620001a0578081fd5b81516001600160401b0380821115620001bd57620001bd620002de565b6040516020601f8401601f1916820181018381118382101715620001e557620001e5620002de565b6040528382528584018101871015620001fc578485fd5b8492505b838310156200021f578583018101518284018201529182019162000200565b838311156200023057848185840101525b5095945050505050565b600080604083850312156200024d578182fd5b82516001600160401b038082111562000264578384fd5b62000272868387016200018f565b9350602085015191508082111562000288578283fd5b5062000297858286016200018f565b9150509250929050565b600281046001821680620002b657607f821691505b60208210811415620002d857634e487b7160e01b600052602260045260246000fd5b50919050565b634e487b7160e01b600052604160045260246000fd5b6121bf80620003046000396000f3fe6080604052600436106101405760003560e01c806370a08231116100b657806395d89b411161006f57806395d89b4114610371578063a22cb46514610386578063b88d4fde146103a6578063c87b56dd146103c6578063e985e9c5146103e6578063f2fde38b1461040657610140565b806370a08231146102b8578063715018a6146102e557806383b5daf7146102fa5780638c0b9c541461031c5780638da5cb5b1461033c5780639012c4a81461035157610140565b806323b872dd1161010857806323b872dd1461020c5780633ccfd60b1461022c57806342842e0e146102345780635ec163db146102545780636352211e14610285578063698d640c146102a557610140565b806301ffc9a71461014557806306fdde031461017b578063081812fc1461019d578063095ea7b3146101ca5780630ce90ec2146101ec575b600080fd5b34801561015157600080fd5b50610165610160366004611936565b610426565b6040516101729190611b33565b60405180910390f35b34801561018757600080fd5b5061019061046e565b6040516101729190611b3e565b3480156101a957600080fd5b506101bd6101b83660046119b4565b610500565b6040516101729190611a47565b3480156101d657600080fd5b506101ea6101e536600461190d565b61054c565b005b3480156101f857600080fd5b506101ea6102073660046119b4565b6105e4565b34801561021857600080fd5b506101ea61022736600461181f565b610669565b6101ea6106a1565b34801561024057600080fd5b506101ea61024f36600461181f565b610726565b34801561026057600080fd5b5061027461026f3660046119b4565b610741565b604051610172959493929190611b51565b34801561029157600080fd5b506101bd6102a03660046119b4565b610817565b6101ea6102b336600461196e565b61084c565b3480156102c457600080fd5b506102d86102d33660046117d3565b61087a565b6040516101729190612021565b3480156102f157600080fd5b506101ea6108be565b34801561030657600080fd5b5061030f610909565b6040516101729190611a98565b34801561032857600080fd5b5061030f6103373660046117d3565b610a2f565b34801561034857600080fd5b506101bd610c21565b34801561035d57600080fd5b506101ea61036c3660046119b4565b610c30565b34801561037d57600080fd5b50610190610c74565b34801561039257600080fd5b506101ea6103a13660046118d3565b610c83565b3480156103b257600080fd5b506101ea6103c136600461185a565b610c95565b3480156103d257600080fd5b506101906103e13660046119b4565b610cd4565b3480156103f257600080fd5b506101656104013660046117ed565b610d57565b34801561041257600080fd5b506101ea6104213660046117d3565b610d85565b60006001600160e01b031982166380ac58cd60e01b148061045757506001600160e01b03198216635b5e139f60e01b145b80610466575061046682610df3565b90505b919050565b60606000805461047d906120a7565b80601f01602080910402602001604051908101604052809291908181526020018280546104a9906120a7565b80156104f65780601f106104cb576101008083540402835291602001916104f6565b820191906000526020600020905b8154815290600101906020018083116104d957829003601f168201915b5050505050905090565b600061050b82610e0c565b6105305760405162461bcd60e51b815260040161052790611e76565b60405180910390fd5b506000908152600460205260409020546001600160a01b031690565b600061055782610817565b9050806001600160a01b0316836001600160a01b0316141561058b5760405162461bcd60e51b815260040161052790611f8f565b806001600160a01b031661059d610e29565b6001600160a01b031614806105b957506105b981610401610e29565b6105d55760405162461bcd60e51b815260040161052790611d51565b6105df8383610e2d565b505050565b336105ee82610817565b6001600160a01b03161461060157600080fd5b60006009828154811061062457634e487b7160e01b600052603260045260246000fd5b6000918252602082206003600490920201908101805491935060ff9091169161064c836120fd565b91906101000a81548160ff021916908360ff160217905550505050565b61067a610674610e29565b82610e9b565b6106965760405162461bcd60e51b815260040161052790611fd0565b6105df838383610f20565b6106a9610e29565b6001600160a01b03166106ba610c21565b6001600160a01b0316146106e05760405162461bcd60e51b815260040161052790611ec2565b60006106ea610c21565b6040519091506001600160a01b038216904780156108fc02916000818181858888f19350505050158015610722573d6000803e3d6000fd5b5050565b6105df83838360405180602001604052806000815250610c95565b6009818154811061075157600080fd5b9060005260206000209060040201600091509050806000018054610774906120a7565b80601f01602080910402602001604051908101604052809291908181526020018280546107a0906120a7565b80156107ed5780601f106107c2576101008083540402835291602001916107ed565b820191906000526020600020905b8154815290600101906020018083116107d057829003601f168201915b50505050600183015460028401546003909401549293909290915060ff8082169161010090041685565b6000818152600260205260408120546001600160a01b0316806104665760405162461bcd60e51b815260040161052790611df8565b60085434101561086e5760405162461bcd60e51b815260040161052790611cd5565b6108778161104d565b50565b60006001600160a01b0382166108a25760405162461bcd60e51b815260040161052790611dae565b506001600160a01b031660009081526003602052604090205490565b6108c6610e29565b6001600160a01b03166108d7610c21565b6001600160a01b0316146108fd5760405162461bcd60e51b815260040161052790611ec2565b61090760006111a2565b565b60606009805480602002602001604051908101604052809291908181526020016000905b82821015610a2657838290600052602060002090600402016040518060a0016040529081600082018054610960906120a7565b80601f016020809104026020016040519081016040528092919081815260200182805461098c906120a7565b80156109d95780601f106109ae576101008083540402835291602001916109d9565b820191906000526020600020905b8154815290600101906020018083116109bc57829003601f168201915b50505091835250506001828101546020808401919091526002840154604084015260039093015460ff8082166060850152610100909104166080909201919091529183529201910161092d565b50505050905090565b60606000610a3c8361087a565b67ffffffffffffffff811115610a6257634e487b7160e01b600052604160045260246000fd5b604051908082528060200260200182016040528015610a9b57816020015b610a8861167e565b815260200190600190039081610a805790505b5090506000805b600954811015610c1857846001600160a01b0316610abf82610817565b6001600160a01b03161415610c065760098181548110610aef57634e487b7160e01b600052603260045260246000fd5b90600052602060002090600402016040518060a0016040529081600082018054610b18906120a7565b80601f0160208091040260200160405190810160405280929190818152602001828054610b44906120a7565b8015610b915780601f10610b6657610100808354040283529160200191610b91565b820191906000526020600020905b815481529060010190602001808311610b7457829003601f168201915b5050509183525050600182015460208201526002820154604082015260039091015460ff8082166060840152610100909104166080909101528351849084908110610bec57634e487b7160e01b600052603260045260246000fd5b60200260200101819052508180610c02906120e2565b9250505b80610c10816120e2565b915050610aa2565b50909392505050565b6006546001600160a01b031690565b610c38610e29565b6001600160a01b0316610c49610c21565b6001600160a01b031614610c6f5760405162461bcd60e51b815260040161052790611ec2565b600855565b60606001805461047d906120a7565b610722610c8e610e29565b83836111f4565b610ca6610ca0610e29565b83610e9b565b610cc25760405162461bcd60e51b815260040161052790611fd0565b610cce84848484611297565b50505050565b6060610cdf82610e0c565b610cfb5760405162461bcd60e51b815260040161052790611f40565b6000610d056112ca565b90506000815111610d255760405180602001604052806000815250610d50565b80610d2f846112dc565b604051602001610d409291906119f8565b6040516020818303038152906040525b9392505050565b6001600160a01b03918216600090815260056020908152604080832093909416825291909152205460ff1690565b610d8d610e29565b6001600160a01b0316610d9e610c21565b6001600160a01b031614610dc45760405162461bcd60e51b815260040161052790611ec2565b6001600160a01b038116610dea5760405162461bcd60e51b815260040161052790611bdd565b610877816111a2565b6001600160e01b031981166301ffc9a760e01b14919050565b6000908152600260205260409020546001600160a01b0316151590565b3390565b600081815260046020526040902080546001600160a01b0319166001600160a01b0384169081179091558190610e6282610817565b6001600160a01b03167f8c5be1e5ebec7d5bd14f71427d1e84f3dd0314c0f7b2291e5b200ac8c7c3b92560405160405180910390a45050565b6000610ea682610e0c565b610ec25760405162461bcd60e51b815260040161052790611d05565b6000610ecd83610817565b9050806001600160a01b0316846001600160a01b03161480610f085750836001600160a01b0316610efd84610500565b6001600160a01b0316145b80610f185750610f188185610d57565b949350505050565b826001600160a01b0316610f3382610817565b6001600160a01b031614610f595760405162461bcd60e51b815260040161052790611ef7565b6001600160a01b038216610f7f5760405162461bcd60e51b815260040161052790611c5a565b610f8a8383836105df565b610f95600082610e2d565b6001600160a01b0383166000908152600360205260408120805460019290610fbe908490612064565b90915550506001600160a01b0382166000908152600360205260408120805460019290610fec908490612038565b909155505060008181526002602052604080822080546001600160a01b0319166001600160a01b0386811691821790925591518493918716917fddf252ad1be2c89b69c2b068fc378daa952ba7f163c4a11628f55a4df523b3ef91a4505050565b600061105960646113f7565b9050600061106d662386f26fc100006113f7565b6040805160a08101825285815260075460208083019190915291810183905260016060820181905260ff86166080830152600980549182018155600052815180519495509193849360049092027f6e1540171b6c0c960b71a7020d9f60077f6af931a8bbf590da0223dacf75c7af01926110eb9284929101906116b3565b50602082015160018201556040820151600282015560608201516003909101805460809093015160ff9081166101000261ff00199190931660ff199094169390931792909216179055600754611142903390611431565b336001600160a01b03167f24d2d558f98bdd9d21339e119fc0b03e213c7d05affd838ac2ee136d90e3bbeb6007548460405161117f92919061202a565b60405180910390a260078054906000611197836120e2565b919050555050505050565b600680546001600160a01b038381166001600160a01b0319831681179093556040519116919082907f8be0079c531659141344cd1fd0a4f28419497f9722a3daafe3b4186f6b6457e090600090a35050565b816001600160a01b0316836001600160a01b031614156112265760405162461bcd60e51b815260040161052790611c9e565b6001600160a01b0383811660008181526005602090815260408083209487168084529490915290819020805460ff1916851515179055517f17307eab39ab6107e8899845ad3d59bd9653f200f220920489ca2b5937696c319061128a908590611b33565b60405180910390a3505050565b6112a2848484610f20565b6112ae8484848461144b565b610cce5760405162461bcd60e51b815260040161052790611b8b565b60408051602081019091526000815290565b60608161130157506040805180820190915260018152600360fc1b6020820152610469565b8160005b811561132b5780611315816120e2565b91506113249050600a83612050565b9150611305565b60008167ffffffffffffffff81111561135457634e487b7160e01b600052604160045260246000fd5b6040519080825280601f01601f19166020018201604052801561137e576020820181803683370190505b5090505b8415610f1857611393600183612064565b91506113a0600a8661211d565b6113ab906030612038565b60f81b8183815181106113ce57634e487b7160e01b600052603260045260246000fd5b60200101906001600160f81b031916908160001a9053506113f0600a86612050565b9450611382565b600080423360405160200161140d929190611a27565b60408051601f1981840301815291905280516020909101209050610d50838261211d565b610722828260405180602001604052806000815250611566565b600061145f846001600160a01b0316611599565b1561155b57836001600160a01b031663150b7a0261147b610e29565b8786866040518563ffffffff1660e01b815260040161149d9493929190611a5b565b602060405180830381600087803b1580156114b757600080fd5b505af19250505080156114e7575060408051601f3d908101601f191682019092526114e491810190611952565b60015b611541573d808015611515576040519150601f19603f3d011682016040523d82523d6000602084013e61151a565b606091505b5080516115395760405162461bcd60e51b815260040161052790611b8b565b805181602001fd5b6001600160e01b031916630a85bd0160e11b149050610f18565b506001949350505050565b611570838361159f565b61157d600084848461144b565b6105df5760405162461bcd60e51b815260040161052790611b8b565b3b151590565b6001600160a01b0382166115c55760405162461bcd60e51b815260040161052790611e41565b6115ce81610e0c565b156115eb5760405162461bcd60e51b815260040161052790611c23565b6115f7600083836105df565b6001600160a01b0382166000908152600360205260408120805460019290611620908490612038565b909155505060008181526002602052604080822080546001600160a01b0319166001600160a01b03861690811790915590518392907fddf252ad1be2c89b69c2b068fc378daa952ba7f163c4a11628f55a4df523b3ef908290a45050565b6040518060a00160405280606081526020016000815260200160008152602001600060ff168152602001600060ff1681525090565b8280546116bf906120a7565b90600052602060002090601f0160209004810192826116e15760008555611727565b82601f106116fa57805160ff1916838001178555611727565b82800160010185558215611727579182015b8281111561172757825182559160200191906001019061170c565b50611733929150611737565b5090565b5b808211156117335760008155600101611738565b600067ffffffffffffffff808411156117675761176761215d565b604051601f8501601f19168101602001828111828210171561178b5761178b61215d565b6040528481529150818385018610156117a357600080fd5b8484602083013760006020868301015250509392505050565b80356001600160a01b038116811461046957600080fd5b6000602082840312156117e4578081fd5b610d50826117bc565b600080604083850312156117ff578081fd5b611808836117bc565b9150611816602084016117bc565b90509250929050565b600080600060608486031215611833578081fd5b61183c846117bc565b925061184a602085016117bc565b9150604084013590509250925092565b6000806000806080858703121561186f578081fd5b611878856117bc565b9350611886602086016117bc565b925060408501359150606085013567ffffffffffffffff8111156118a8578182fd5b8501601f810187136118b8578182fd5b6118c78782356020840161174c565b91505092959194509250565b600080604083850312156118e5578182fd5b6118ee836117bc565b915060208301358015158114611902578182fd5b809150509250929050565b6000806040838503121561191f578182fd5b611928836117bc565b946020939093013593505050565b600060208284031215611947578081fd5b8135610d5081612173565b600060208284031215611963578081fd5b8151610d5081612173565b60006020828403121561197f578081fd5b813567ffffffffffffffff811115611995578182fd5b8201601f810184136119a5578182fd5b610f188482356020840161174c565b6000602082840312156119c5578081fd5b5035919050565b600081518084526119e481602086016020860161207b565b601f01601f19169290920160200192915050565b60008351611a0a81846020880161207b565b835190830190611a1e81836020880161207b565b01949350505050565b91825260601b6bffffffffffffffffffffffff1916602082015260340190565b6001600160a01b0391909116815260200190565b6001600160a01b0385811682528416602082015260408101839052608060608201819052600090611a8e908301846119cc565b9695505050505050565b60208082528251828201819052600091906040908185019080840286018301878501865b83811015611b2557603f19898403018552815160a08151818652611ae2828701826119cc565b838b0151878c0152898401518a88015260608085015160ff9081169189019190915260809485015116939096019290925250509386019390860190600101611abc565b509098975050505050505050565b901515815260200190565b600060208252610d5060208301846119cc565b600060a08252611b6460a08301886119cc565b602083019690965250604081019390935260ff918216606084015216608090910152919050565b60208082526032908201527f4552433732313a207472616e7366657220746f206e6f6e20455243373231526560408201527131b2b4bb32b91034b6b83632b6b2b73a32b960711b606082015260800190565b60208082526026908201527f4f776e61626c653a206e6577206f776e657220697320746865207a65726f206160408201526564647265737360d01b606082015260800190565b6020808252601c908201527f4552433732313a20746f6b656e20616c7265616479206d696e74656400000000604082015260600190565b60208082526024908201527f4552433732313a207472616e7366657220746f20746865207a65726f206164646040820152637265737360e01b606082015260800190565b60208082526019908201527f4552433732313a20617070726f766520746f2063616c6c657200000000000000604082015260600190565b602080825260169082015275151a1948199959481a5cc81b9bdd0818dbdc9c9958dd60521b604082015260600190565b6020808252602c908201527f4552433732313a206f70657261746f7220717565727920666f72206e6f6e657860408201526b34b9ba32b73a103a37b5b2b760a11b606082015260800190565b60208082526038908201527f4552433732313a20617070726f76652063616c6c6572206973206e6f74206f7760408201527f6e6572206e6f7220617070726f76656420666f7220616c6c0000000000000000606082015260800190565b6020808252602a908201527f4552433732313a2062616c616e636520717565727920666f7220746865207a65604082015269726f206164647265737360b01b606082015260800190565b60208082526029908201527f4552433732313a206f776e657220717565727920666f72206e6f6e657869737460408201526832b73a103a37b5b2b760b91b606082015260800190565b6020808252818101527f4552433732313a206d696e7420746f20746865207a65726f2061646472657373604082015260600190565b6020808252602c908201527f4552433732313a20617070726f76656420717565727920666f72206e6f6e657860408201526b34b9ba32b73a103a37b5b2b760a11b606082015260800190565b6020808252818101527f4f776e61626c653a2063616c6c6572206973206e6f7420746865206f776e6572604082015260600190565b60208082526029908201527f4552433732313a207472616e73666572206f6620746f6b656e2074686174206960408201526839903737ba1037bbb760b91b606082015260800190565b6020808252602f908201527f4552433732314d657461646174613a2055524920717565727920666f72206e6f60408201526e3732bc34b9ba32b73a103a37b5b2b760891b606082015260800190565b60208082526021908201527f4552433732313a20617070726f76616c20746f2063757272656e74206f776e656040820152603960f91b606082015260800190565b60208082526031908201527f4552433732313a207472616e736665722063616c6c6572206973206e6f74206f6040820152701ddb995c881b9bdc88185c1c1c9bdd9959607a1b606082015260800190565b90815260200190565b918252602082015260400190565b6000821982111561204b5761204b612131565b500190565b60008261205f5761205f612147565b500490565b60008282101561207657612076612131565b500390565b60005b8381101561209657818101518382015260200161207e565b83811115610cce5750506000910152565b6002810460018216806120bb57607f821691505b602082108114156120dc57634e487b7160e01b600052602260045260246000fd5b50919050565b60006000198214156120f6576120f6612131565b5060010190565b600060ff821660ff81141561211457612114612131565b60010192915050565b60008261212c5761212c612147565b500690565b634e487b7160e01b600052601160045260246000fd5b634e487b7160e01b600052601260045260246000fd5b634e487b7160e01b600052604160045260246000fd5b6001600160e01b03198116811461087757600080fdfea2646970667358221220c1d576d69b262e90b4766db8ceb4420c45b85f0175eaa3b6e189ffeb95117ee764736f6c63430008000033",
  "immutableReferences": {},
  "source": "//SPDX-License-Identifier: MIT\n\npragma solidity ^0.8.0;\n\nimport \"../node_modules/@openzeppelin/contracts/token/ERC721/ERC721.sol\";\nimport \"../node_modules/@openzeppelin/contracts/access/Ownable.sol\";\n\ncontract LipToken is ERC721, Ownable {\nconstructor(string memory _name, string memory _symbol)\n        ERC721(_name, _symbol)\n        {}\n\n    uint256 COUNTER;\n\n    uint256 fee = 0.01 ether;\n\n    struct Lip {\n        string name;\n        uint256 id;\n        uint256 dna;\n        uint8 level;\n        uint8 rarity;\n    }\n\n    Lip[] public lips;\n\n    event NewLip(address indexed owner, uint256 id, uint256 dna);\n\n//helpers\nfunction _createRandomNumber(uint256 _mod) internal view returns(uint256) {\n    uint256 randomNum = uint256(keccak256(abi.encodePacked(block.timestamp, msg.sender)));\n    return randomNum % _mod;\n} \n\nfunction updateFee(uint256 _fee) external onlyOwner() {\n    fee = _fee;\n}\n\nfunction withdraw() external payable onlyOwner() {\n    address payable _owner = payable (owner());\n    _owner.transfer(address(this).balance);\n}\n\n//creation\n        function _createLip(string memory _name) internal {\n            uint8 randRarity = uint8(_createRandomNumber(100));\n            uint256 randDna = _createRandomNumber(10**16);\n            Lip memory newLip = Lip(_name, COUNTER, randDna, 1, randRarity);\n            lips.push(newLip);\n            _safeMint(msg.sender, COUNTER);\n            emit NewLip(msg.sender, COUNTER, randDna);\n            COUNTER++;\n        }\n\n        function createRandomLip(string memory _name) public payable {\n            require(msg.value >= fee, \"The fee is not correct\");\n            _createLip(_name);\n        }\n\n//getters\n        function getLips() public view returns(Lip[] memory){\n            return lips;\n        }\n\n        function getOwnerLips(address _owner) public view returns (Lip[] memory) {\n            Lip[] memory result = new Lip[](balanceOf(_owner));\n                uint256 counter = 0;\n                for (uint256 i = 0; i < lips.length; i++) {\n                    if (ownerOf(i) == _owner) {\n                        result[counter] = lips[i];\n                        counter++;\n                    }\n                }\n            return result;\n        }\n// Actions\n  function levelUp(uint256 _lipId) public {\n    require(ownerOf(_lipId) == msg.sender);\n    Lip storage lip = lips[_lipId];\n    lip.level++;\n  }\n}",
  "sourcePath": "/home/apurvaj01/NFT_Game/nft_game/contracts/LipToken.sol",
  "compiler": {
    "name": "solc",
    "version": "0.8.0+commit.c7dfd78e.Emscripten.clang"
  },
  "schemaVersion": "3.2.3",
  "updatedAt": "2022-03-24T09:27:01.533Z",
  "networkType": "ethereum",
  "devdoc": {
    "kind": "dev",
    "methods": {
      "approve(address,uint256)": {
        "details": "See {IERC721-approve}."
      },
      "balanceOf(address)": {
        "details": "See {IERC721-balanceOf}."
      },
      "getApproved(uint256)": {
        "details": "See {IERC721-getApproved}."
      },
      "isApprovedForAll(address,address)": {
        "details": "See {IERC721-isApprovedForAll}."
      },
      "name()": {
        "details": "See {IERC721Metadata-name}."
      },
      "owner()": {
        "details": "Returns the address of the current owner."
      },
      "ownerOf(uint256)": {
        "details": "See {IERC721-ownerOf}."
      },
      "renounceOwnership()": {
        "details": "Leaves the contract without owner. It will not be possible to call `onlyOwner` functions anymore. Can only be called by the current owner. NOTE: Renouncing ownership will leave the contract without an owner, thereby removing any functionality that is only available to the owner."
      },
      "safeTransferFrom(address,address,uint256)": {
        "details": "See {IERC721-safeTransferFrom}."
      },
      "safeTransferFrom(address,address,uint256,bytes)": {
        "details": "See {IERC721-safeTransferFrom}."
      },
      "setApprovalForAll(address,bool)": {
        "details": "See {IERC721-setApprovalForAll}."
      },
      "supportsInterface(bytes4)": {
        "details": "See {IERC165-supportsInterface}."
      },
      "symbol()": {
        "details": "See {IERC721Metadata-symbol}."
      },
      "tokenURI(uint256)": {
        "details": "See {IERC721Metadata-tokenURI}."
      },
      "transferFrom(address,address,uint256)": {
        "details": "See {IERC721-transferFrom}."
      },
      "transferOwnership(address)": {
        "details": "Transfers ownership of the contract to a new account (`newOwner`). Can only be called by the current owner."
      }
    },
    "version": 1
  },
  "userdoc": {
    "kind": "user",
    "methods": {},
    "version": 1
  }
}